{
  "_format": "hh-sol-artifact-1",
  "contractName": "CheckpointApproval",
  "sourceName": "contracts/CheckpointApproval.sol",
  "abi": [
    {
      "inputs": [],
      "stateMutability": "nonpayable",
      "type": "constructor"
    },
    {
      "inputs": [],
      "name": "admin",
      "outputs": [
        {
          "internalType": "address",
          "name": "",
          "type": "address"
        }
      ],
      "stateMutability": "view",
      "type": "function"
    },
    {
      "inputs": [
        {
          "internalType": "uint256",
          "name": "",
          "type": "uint256"
        }
      ],
      "name": "approvals",
      "outputs": [
        {
          "internalType": "bool",
          "name": "seller",
          "type": "bool"
        },
        {
          "internalType": "bool",
          "name": "buyer",
          "type": "bool"
        },
        {
          "internalType": "bool",
          "name": "platform",
          "type": "bool"
        },
        {
          "internalType": "bool",
          "name": "transporter",
          "type": "bool"
        }
      ],
      "stateMutability": "view",
      "type": "function"
    },
    {
      "inputs": [
        {
          "internalType": "uint256",
          "name": "checkpointId",
          "type": "uint256"
        },
        {
          "internalType": "string",
          "name": "role",
          "type": "string"
        }
      ],
      "name": "approve",
      "outputs": [],
      "stateMutability": "nonpayable",
      "type": "function"
    },
    {
      "inputs": [
        {
          "internalType": "address",
          "name": "newAdmin",
          "type": "address"
        }
      ],
      "name": "changeAdmin",
      "outputs": [],
      "stateMutability": "nonpayable",
      "type": "function"
    },
    {
      "inputs": [
        {
          "internalType": "uint256",
          "name": "",
          "type": "uint256"
        }
      ],
      "name": "checkpointApprovers",
      "outputs": [
        {
          "internalType": "address",
          "name": "seller",
          "type": "address"
        },
        {
          "internalType": "address",
          "name": "buyer",
          "type": "address"
        },
        {
          "internalType": "address",
          "name": "platform",
          "type": "address"
        },
        {
          "internalType": "address",
          "name": "transporter",
          "type": "address"
        }
      ],
      "stateMutability": "view",
      "type": "function"
    },
    {
      "inputs": [
        {
          "internalType": "uint256",
          "name": "checkpointId",
          "type": "uint256"
        }
      ],
      "name": "isBuyerApproved",
      "outputs": [
        {
          "internalType": "bool",
          "name": "",
          "type": "bool"
        }
      ],
      "stateMutability": "view",
      "type": "function"
    },
    {
      "inputs": [
        {
          "internalType": "uint256",
          "name": "checkpointId",
          "type": "uint256"
        }
      ],
      "name": "isPlatformApproved",
      "outputs": [
        {
          "internalType": "bool",
          "name": "",
          "type": "bool"
        }
      ],
      "stateMutability": "view",
      "type": "function"
    },
    {
      "inputs": [
        {
          "internalType": "uint256",
          "name": "checkpointId",
          "type": "uint256"
        }
      ],
      "name": "isSellerApproved",
      "outputs": [
        {
          "internalType": "bool",
          "name": "",
          "type": "bool"
        }
      ],
      "stateMutability": "view",
      "type": "function"
    },
    {
      "inputs": [
        {
          "internalType": "uint256",
          "name": "checkpointId",
          "type": "uint256"
        }
      ],
      "name": "isTransporterApproved",
      "outputs": [
        {
          "internalType": "bool",
          "name": "",
          "type": "bool"
        }
      ],
      "stateMutability": "view",
      "type": "function"
    },
    {
      "inputs": [
        {
          "internalType": "uint256",
          "name": "checkpointId",
          "type": "uint256"
        },
        {
          "internalType": "address",
          "name": "sellerApprover",
          "type": "address"
        },
        {
          "internalType": "address",
          "name": "buyerApprover",
          "type": "address"
        },
        {
          "internalType": "address",
          "name": "platformApprover",
          "type": "address"
        },
        {
          "internalType": "address",
          "name": "transporterApprover",
          "type": "address"
        }
      ],
      "name": "setApprovers",
      "outputs": [],
      "stateMutability": "nonpayable",
      "type": "function"
    }
  ],
  "bytecode": "0x608060405234801561001057600080fd5b50336000806101000a81548173ffffffffffffffffffffffffffffffffffffffff021916908373ffffffffffffffffffffffffffffffffffffffff160217905550611778806100606000396000f3fe608060405234801561001057600080fd5b506004361061009e5760003560e01c806380a4c2af1161006657806380a4c2af1461016e5780638f283970146101a1578063b9ffc7d5146101bd578063f02c28fd146101ed578063f851a4401461021d5761009e565b80630a1a5366146100a35780630de2300a146100bf57806363035f66146100ef5780636eae44ee1461012257806372405ab014610152575b600080fd5b6100bd60048036038101906100b89190610ea4565b61023b565b005b6100d960048036038101906100d49190610f1f565b61047b565b6040516100e69190610f67565b60405180910390f35b61010960048036038101906101049190610f1f565b6104a8565b6040516101199493929190610f82565b60405180910390f35b61013c60048036038101906101379190610f1f565b61050c565b6040516101499190610f67565b60405180910390f35b61016c6004803603810190610167919061110d565b610539565b005b61018860048036038101906101839190610f1f565b610bfd565b6040516101989493929190611178565b60405180910390f35b6101bb60048036038101906101b691906111bd565b610cad565b005b6101d760048036038101906101d29190610f1f565b610d7e565b6040516101e49190610f67565b60405180910390f35b61020760048036038101906102029190610f1f565b610dab565b6040516102149190610f67565b60405180910390f35b610225610dd8565b60405161023291906111ea565b60405180910390f35b60008054906101000a900473ffffffffffffffffffffffffffffffffffffffff1673ffffffffffffffffffffffffffffffffffffffff163373ffffffffffffffffffffffffffffffffffffffff16146102c9576040517f08c379a00000000000000000000000000000000000000000000000000000000081526004016102c090611262565b60405180910390fd5b60405180608001604052808573ffffffffffffffffffffffffffffffffffffffff1681526020018473ffffffffffffffffffffffffffffffffffffffff1681526020018373ffffffffffffffffffffffffffffffffffffffff1681526020018273ffffffffffffffffffffffffffffffffffffffff168152506001600087815260200190815260200160002060008201518160000160006101000a81548173ffffffffffffffffffffffffffffffffffffffff021916908373ffffffffffffffffffffffffffffffffffffffff16021790555060208201518160010160006101000a81548173ffffffffffffffffffffffffffffffffffffffff021916908373ffffffffffffffffffffffffffffffffffffffff16021790555060408201518160020160006101000a81548173ffffffffffffffffffffffffffffffffffffffff021916908373ffffffffffffffffffffffffffffffffffffffff16021790555060608201518160030160006101000a81548173ffffffffffffffffffffffffffffffffffffffff021916908373ffffffffffffffffffffffffffffffffffffffff1602179055509050505050505050565b60006002600083815260200190815260200160002060000160039054906101000a900460ff169050919050565b60026020528060005260406000206000915090508060000160009054906101000a900460ff16908060000160019054906101000a900460ff16908060000160029054906101000a900460ff16908060000160039054906101000a900460ff16905084565b60006002600083815260200190815260200160002060000160019054906101000a900460ff169050919050565b81816000600160008481526020019081526020016000206040518060800160405290816000820160009054906101000a900473ffffffffffffffffffffffffffffffffffffffff1673ffffffffffffffffffffffffffffffffffffffff1673ffffffffffffffffffffffffffffffffffffffff1681526020016001820160009054906101000a900473ffffffffffffffffffffffffffffffffffffffff1673ffffffffffffffffffffffffffffffffffffffff1673ffffffffffffffffffffffffffffffffffffffff1681526020016002820160009054906101000a900473ffffffffffffffffffffffffffffffffffffffff1673ffffffffffffffffffffffffffffffffffffffff1673ffffffffffffffffffffffffffffffffffffffff1681526020016003820160009054906101000a900473ffffffffffffffffffffffffffffffffffffffff1673ffffffffffffffffffffffffffffffffffffffff1673ffffffffffffffffffffffffffffffffffffffff168152505090506040516020016106c4906112d9565b60405160208183030381529060405280519060200120826040516020016106eb9190611354565b604051602081830303815290604052805190602001200361077d57806000015173ffffffffffffffffffffffffffffffffffffffff163373ffffffffffffffffffffffffffffffffffffffff1614610778576040517f08c379a000000000000000000000000000000000000000000000000000000000815260040161076f906113dd565b60405180910390fd5b610a13565b60405160200161078c90611449565b60405160208183030381529060405280519060200120826040516020016107b39190611354565b604051602081830303815290604052805190602001200361084557806020015173ffffffffffffffffffffffffffffffffffffffff163373ffffffffffffffffffffffffffffffffffffffff1614610840576040517f08c379a0000000000000000000000000000000000000000000000000000000008152600401610837906114d0565b60405180910390fd5b610a12565b6040516020016108549061153c565b604051602081830303815290604052805190602001208260405160200161087b9190611354565b604051602081830303815290604052805190602001200361090d57806040015173ffffffffffffffffffffffffffffffffffffffff163373ffffffffffffffffffffffffffffffffffffffff1614610908576040517f08c379a00000000000000000000000000000000000000000000000000000000081526004016108ff906115c3565b60405180910390fd5b610a11565b60405160200161091c9061162f565b60405160208183030381529060405280519060200120826040516020016109439190611354565b60405160208183030381529060405280519060200120036109d557806060015173ffffffffffffffffffffffffffffffffffffffff163373ffffffffffffffffffffffffffffffffffffffff16146109d0576040517f08c379a00000000000000000000000000000000000000000000000000000000081526004016109c7906116b6565b60405180910390fd5b610a10565b6040517f08c379a0000000000000000000000000000000000000000000000000000000008152600401610a0790611722565b60405180910390fd5b5b5b5b6000600260008781526020019081526020016000209050604051602001610a39906112d9565b6040516020818303038152906040528051906020012085604051602001610a609190611354565b6040516020818303038152906040528051906020012003610a9d5760018160000160006101000a81548160ff021916908315150217905550610bf5565b604051602001610aac90611449565b6040516020818303038152906040528051906020012085604051602001610ad39190611354565b6040516020818303038152906040528051906020012003610b105760018160000160016101000a81548160ff021916908315150217905550610bf4565b604051602001610b1f9061153c565b6040516020818303038152906040528051906020012085604051602001610b469190611354565b6040516020818303038152906040528051906020012003610b835760018160000160026101000a81548160ff021916908315150217905550610bf3565b604051602001610b929061162f565b6040516020818303038152906040528051906020012085604051602001610bb99190611354565b6040516020818303038152906040528051906020012003610bf25760018160000160036101000a81548160ff0219169083151502179055505b5b5b5b505050505050565b60016020528060005260406000206000915090508060000160009054906101000a900473ffffffffffffffffffffffffffffffffffffffff16908060010160009054906101000a900473ffffffffffffffffffffffffffffffffffffffff16908060020160009054906101000a900473ffffffffffffffffffffffffffffffffffffffff16908060030160009054906101000a900473ffffffffffffffffffffffffffffffffffffffff16905084565b60008054906101000a900473ffffffffffffffffffffffffffffffffffffffff1673ffffffffffffffffffffffffffffffffffffffff163373ffffffffffffffffffffffffffffffffffffffff1614610d3b576040517f08c379a0000000000000000000000000000000000000000000000000000000008152600401610d3290611262565b60405180910390fd5b806000806101000a81548173ffffffffffffffffffffffffffffffffffffffff021916908373ffffffffffffffffffffffffffffffffffffffff16021790555050565b60006002600083815260200190815260200160002060000160029054906101000a900460ff169050919050565b60006002600083815260200190815260200160002060000160009054906101000a900460ff169050919050565b60008054906101000a900473ffffffffffffffffffffffffffffffffffffffff1681565b6000604051905090565b600080fd5b600080fd5b6000819050919050565b610e2381610e10565b8114610e2e57600080fd5b50565b600081359050610e4081610e1a565b92915050565b600073ffffffffffffffffffffffffffffffffffffffff82169050919050565b6000610e7182610e46565b9050919050565b610e8181610e66565b8114610e8c57600080fd5b50565b600081359050610e9e81610e78565b92915050565b600080600080600060a08688031215610ec057610ebf610e06565b5b6000610ece88828901610e31565b9550506020610edf88828901610e8f565b9450506040610ef088828901610e8f565b9350506060610f0188828901610e8f565b9250506080610f1288828901610e8f565b9150509295509295909350565b600060208284031215610f3557610f34610e06565b5b6000610f4384828501610e31565b91505092915050565b60008115159050919050565b610f6181610f4c565b82525050565b6000602082019050610f7c6000830184610f58565b92915050565b6000608082019050610f976000830187610f58565b610fa46020830186610f58565b610fb16040830185610f58565b610fbe6060830184610f58565b95945050505050565b600080fd5b600080fd5b6000601f19601f8301169050919050565b7f4e487b7100000000000000000000000000000000000000000000000000000000600052604160045260246000fd5b61101a82610fd1565b810181811067ffffffffffffffff8211171561103957611038610fe2565b5b80604052505050565b600061104c610dfc565b90506110588282611011565b919050565b600067ffffffffffffffff82111561107857611077610fe2565b5b61108182610fd1565b9050602081019050919050565b82818337600083830152505050565b60006110b06110ab8461105d565b611042565b9050828152602081018484840111156110cc576110cb610fcc565b5b6110d784828561108e565b509392505050565b600082601f8301126110f4576110f3610fc7565b5b813561110484826020860161109d565b91505092915050565b6000806040838503121561112457611123610e06565b5b600061113285828601610e31565b925050602083013567ffffffffffffffff81111561115357611152610e0b565b5b61115f858286016110df565b9150509250929050565b61117281610e66565b82525050565b600060808201905061118d6000830187611169565b61119a6020830186611169565b6111a76040830185611169565b6111b46060830184611169565b95945050505050565b6000602082840312156111d3576111d2610e06565b5b60006111e184828501610e8f565b91505092915050565b60006020820190506111ff6000830184611169565b92915050565b600082825260208201905092915050565b7f4e6f7420617574686f72697a65643a204f6e6c792061646d696e000000000000600082015250565b600061124c601a83611205565b915061125782611216565b602082019050919050565b6000602082019050818103600083015261127b8161123f565b9050919050565b600081905092915050565b7f73656c6c65720000000000000000000000000000000000000000000000000000600082015250565b60006112c3600683611282565b91506112ce8261128d565b600682019050919050565b60006112e4826112b6565b9150819050919050565b600081519050919050565b60005b838110156113175780820151818401526020810190506112fc565b60008484015250505050565b600061132e826112ee565b6113388185611282565b93506113488185602086016112f9565b80840191505092915050565b60006113608284611323565b915081905092915050565b7f4e6f7420617574686f72697a65643a204f6e6c792073656c6c6572206170707260008201527f6f76657200000000000000000000000000000000000000000000000000000000602082015250565b60006113c7602483611205565b91506113d28261136b565b604082019050919050565b600060208201905081810360008301526113f6816113ba565b9050919050565b7f6275796572000000000000000000000000000000000000000000000000000000600082015250565b6000611433600583611282565b915061143e826113fd565b600582019050919050565b600061145482611426565b9150819050919050565b7f4e6f7420617574686f72697a65643a204f6e6c7920627579657220617070726f60008201527f7665720000000000000000000000000000000000000000000000000000000000602082015250565b60006114ba602383611205565b91506114c58261145e565b604082019050919050565b600060208201905081810360008301526114e9816114ad565b9050919050565b7f706c6174666f726d000000000000000000000000000000000000000000000000600082015250565b6000611526600883611282565b9150611531826114f0565b600882019050919050565b600061154782611519565b9150819050919050565b7f4e6f7420617574686f72697a65643a204f6e6c7920706c6174666f726d20617060008201527f70726f7665720000000000000000000000000000000000000000000000000000602082015250565b60006115ad602683611205565b91506115b882611551565b604082019050919050565b600060208201905081810360008301526115dc816115a0565b9050919050565b7f7472616e73706f72746572000000000000000000000000000000000000000000600082015250565b6000611619600b83611282565b9150611624826115e3565b600b82019050919050565b600061163a8261160c565b9150819050919050565b7f4e6f7420617574686f72697a65643a204f6e6c79207472616e73706f7274657260008201527f20617070726f7665720000000000000000000000000000000000000000000000602082015250565b60006116a0602983611205565b91506116ab82611644565b604082019050919050565b600060208201905081810360008301526116cf81611693565b9050919050565b7f496e76616c696420726f6c650000000000000000000000000000000000000000600082015250565b600061170c600c83611205565b9150611717826116d6565b602082019050919050565b6000602082019050818103600083015261173b816116ff565b905091905056fea264697066735822122070d19e7971b7340c66e1c322c65220b1b2fb3b5f1f611bac2ae2e50cb21b176a64736f6c63430008130033",
  "linkReferences": {},
  "deployedLinkReferences": {}
}